:100000000C945A000C9477000C9477000C947700B1
:100010000C9477000C9477000C9477000C94770084
:100020000C9477000C9477000C9477000C94770074
:100030000C9477000C9479000C9477000C94770062
:100040000C9477000C9477000C9477000C94770054
:100050000C9477000C9477000C9477000C94770044
:100060000C9477000C9477000C9477000C94770034
:100070000C9477000C9477000C9477000C94770024
:100080000C9477000C9477000C9477000C94770014
:100090000C9477000C9477000C9477000C94770004
:1000A0000C9477000C9477000C9477000C947700F4
:1000B0000C94770011241FBECFEFD8E0DEBFCDBF78
:1000C00011E0A0E0B1E0EAEFF1E002C005900D928E
:1000D000A630B107D9F721E0A6E0B1E001C01D923A
:1000E000A830B207E1F70E949D000C94FB000C942D
:1000F00000001F920F920FB60F9211248F939F93BF
:10010000EF93FF93E0910601F0910701EE0FFF1FBF
:10011000E050FF4F8081918190938500809384000F
:1001200095B180E2892785B9FF91EF919F918F91D9
:100130000F900FBE0F901F90189580E284B98FEF3B
:100140009FEF90938500809384001092800084E05C
:100150008093810081E080936F007894C3E0D0E0C9
:10016000E4E8F0E02FEF3FEF1F99FECF8FE99FE02B
:100170000197F1F700C000001F9BFECF80910601A0
:10018000909107010196BE010E94D3009093070150
:1001900080930601318320838FE99FE00197F1F777
:1001A00000C00000E1CF97FB072E16F4009407D0A3
:1001B00077FD09D00E94E70007FC05D03EF490953A
:1001C00081959F4F0895709561957F4F0895AA1B63
:1001D000BB1B51E107C0AA1FBB1FA617B70710F032
:1001E000A61BB70B881F991F5A95A9F78095909564
:0A01F000BC01CD010895F894FFCF83
:0601FA0096E7CBF3EE8551
:00000001FF
